:100000000C9446000C9465000C9465000C946500FB
:100010000C9465000C9465000C9465000C946500CC
:100020000C9465000C9465000C9465000C946500BC
:100030000C9465000C9465000C9465000C946500AC
:100040000C94530C0C9465000C9465000C946500A2
:100050000C9465000C9465000C9465000C9465008C
:100060000C9465000C9465000C9465000C9465007C
:100070000C9465000C9465000C9465000C9465006C
:100080000C9465000C9465000C94650011241FBE4F
:10009000CFEFD0E1DEBFCDBF11E0A0E0B1E0E0E600
:1000A000F5E200E00BBF02C007900D92AC30B10743
:1000B000D9F711E0ACE0B1E001C01D92A431B10765
:1000C000E1F70E94A20B0C94AE120C9400000F9367
:1000D0001F93DF93CF93CDB7DEB7EF970FB6F894AA
:1000E000DEBF0FBECDBF8FAF85E390E0FC01108275
:1000F0008BE390E02FADFC01208380E090E0A0E84E
:10010000BFE389839A83AB83BC8369817A818B81C6
:100110009C812BEA3AEA4AEA50E40E94510EDC0143
:10012000CB018D839E83AF83B88711E06D817E8183
:100130008F81988520E030E040E85FE30E9459100D
:1001400088230CF010E0112319F081E08987A3C007
:1001500011E06D817E818F81988520E030E04FE74E
:1001600053E40E94F90F18160CF010E0112309F463
:1001700089C069817A818B819C8120E030E04AE7E7
:1001800054E40E944B0FDC01CB018A879B87AC872C
:10019000BD876A857B858C859D8520E030E04AE7B8
:1001A00055E40E94510EDC01CB018E879F87A88BFE
:1001B000B98B11E06E857F858889998920E030E0D0
:1001C00040E85FE30E94591088230CF010E01123EF
:1001D00029F081E090E09B8B8A8B46C011E06E8510
:1001E0007F858889998920E03FEF4FE757E40E9497
:1001F000F90F18160CF010E0112361F16A857B8568
:100200008C859D8520E030E040E251E40E94510E53
:10021000DC01CB01BC01CD010E947D0CDC01CB01D6
:100220009B8B8A8B12C080E991E09D8B8C8B8C8993
:100230009D898C01C8010197F1F78C011D8B0C8BF6
:100240008A899B8901979B8B8A8B8A899B890097D6
:1002500051F728C06E857F85888999890E947D0C19
:10026000DC01CB019B8B8A8B8A899B899F8B8E8B30
:100270008E899F898C01F8013197F1F78F011F8BCF
:100280000E8B10C06D817E818F8198850E947D0CC0
:10029000DC01CB0189878985888F888D182F1A9575
:1002A000F1F7188F85E390E025E330E0F901208134
:1002B0002460FC01208380E090E0A0E2B1E4898F1B
:1002C0009A8FAB8FBC8F698D7A8D8B8D9C8D2BEA2D
:1002D0003AEA4AEA50E40E94510EDC01CB018D8FCC
:1002E0009E8FAF8FB8A311E06D8D7E8D8F8D98A1FD
:1002F00020E030E040E85FE30E94591088230CF0D2
:1003000010E0112319F081E089A3A3C011E06D8DE5
:100310007E8D8F8D98A120E030E04FE753E40E945E
:10032000F90F18160CF010E0112309F489C0698D3B
:100330007A8D8B8D9C8D20E030E04AE754E40E945A
:100340004B0FDC01CB018AA39BA3ACA3BDA36AA185
:100350007BA18CA19DA120E030E04AE755E40E94FA
:10036000510EDC01CB018EA39FA3A8A7B9A711E072
:100370006EA17FA188A599A520E030E040E85FE369
:100380000E94591088230CF010E0112329F081E01D
:1003900090E09BA78AA746C011E06EA17FA188A527
:1003A00099A520E03FEF4FE757E40E94F90F181698
:1003B0000CF010E0112361F16AA17BA18CA19DA139
:1003C00020E030E040E251E40E94510EDC01CB011C
:1003D000BC01CD010E947D0CDC01CB019BA78AA74B
:1003E00012C080E991E09DA78CA78CA59DA58C01EA
:1003F000C8010197F1F78C011DA70CA78AA59BA541
:1004000001979BA78AA78AA59BA5009751F728C0AB
:100410006EA17FA188A599A50E947D0CDC01CB016E
:100420009BA78AA78AA59BA59FA78EA78EA59FA5F8
:100430008C01F8013197F1F78F011FA70EA710C0AB
:100440006D8D7E8D8F8D98A10E947D0CDC01CB017E
:1004500089A389A188AB88A9182F1A95F1F718AB41
:1004600085E390E0FC01108280E090E0A0E8BFE32B
:1004700089AB9AABABABBCAB69A97AA98BA99CA998
:1004800020E030E04AE755E40E94510EDC01CB0148
:100490008DAB9EABAFABB8AF11E06DA97EA98FA9B4
:1004A00098AD20E030E040E85FE30E9459108823D7
:1004B0000CF010E0112329F081E090E09AAF89AFB1
:1004C00046C011E06DA97EA98FA998AD20E03FEF4D
:1004D0004FE757E40E94F90F18160CF010E01123B3
:1004E00061F169A97AA98BA99CA920E030E040E2DA
:1004F00051E40E94510EDC01CB01BC01CD010E94F0
:100500007D0CDC01CB019AAF89AF12C080E991E08C
:100510009CAF8BAF8BAD9CAD8C01C8010197F1F7FF
:100520008C011CAF0BAF89AD9AAD01979AAF89AF23
:1005300089AD9AAD009751F717C06DA97EA98FA913
:1005400098AD0E947D0CDC01CB019AAF89AF89ADDB
:100550009AAD9EAF8DAF8DAD9EAD8C01F8013197F8
:10056000F1F78F011EAF0DAFEF960FB6F894DEBF17
:100570000FBECDBFCF91DF911F910F9108950F93C3
:100580001F93DF93CF93CDB7DEB7C954D0400FB6DA
:10059000F894DEBF0FBECDBF9E01275B3F4FF90130
:1005A000808385E390E021E0FC0120838BE390E0F1
:1005B0009E01275B3F4FF9012081FC01208380E0F1
:1005C00090E0A0E8BFE389839A83AB83BC83698111
:1005D0007A818B819C812BEA3AEA4AEA50E40E94B4
:1005E000510EDC01CB018D839E83AF83B88711E070
:1005F0006D817E818F81988520E030E040E85FE367
:100600000E94591088230CF010E0112319F081E0AA
:100610008987A3C011E06D817E818F81988520E05C
:1006200030E04FE753E40E94F90F18160CF010E089
:10063000112309F489C069817A818B819C8120E032
:1006400030E04AE754E40E944B0FDC01CB018A877B
:100650009B87AC87BD876A857B858C859D8520E0DF
:1006600030E04AE755E40E94510EDC01CB018E8751
:100670009F87A88BB98B11E06E857F8588899989C2
:1006800020E030E040E85FE30E94591088230CF03E
:1006900010E0112329F081E090E09B8B8A8B46C00B
:1006A00011E06E857F858889998920E03FEF4FE7CB
:1006B00057E40E94F90F18160CF010E0112361F1B5
:1006C0006A857B858C859D8520E030E040E251E4A1
:1006D0000E94510EDC01CB01BC01CD010E947D0CBA
:1006E000DC01CB019B8B8A8B12C080E991E09D8B52
:1006F0008C8B8C899D898C01C8010197F1F78C0145
:100700001D8B0C8B8A899B8901979B8B8A8B8A898D
:100710009B89009751F728C06E857F8588899989C4
:100720000E947D0CDC01CB019B8B8A8B8A899B8983
:100730009F8B8E8B8E899F898C01F8013197F1F701
:100740008F011F8B0E8B10C06D817E818F819885EC
:100750000E947D0CDC01CB0189878985888F888D7B
:10076000182F1A95F1F7188F85E390E025E330E014
:10077000F90120812460FC01208380E090E0A0E268
:10078000B1E4898F9A8FAB8FBC8F698D7A8D8B8DF9
:100790009C8D2BEA3AEA4AEA50E40E94510EDC01B1
:1007A000CB018D8F9E8FAF8FB8A311E06D8D7E8DA5
:1007B0008F8D98A120E030E040E85FE30E9459105F
:1007C00088230CF010E0112319F081E089A3A3C065
:1007D00011E06D8D7E8D8F8D98A120E030E04FE788
:1007E00053E40E94F90F18160CF010E0112309F4DD
:1007F00089C0698D7A8D8B8D9C8D20E030E04AE731
:1008000054E40E944B0FDC01CB018AA39BA3ACA351
:10081000BDA36AA17BA18CA19DA120E030E04AE7A5
:1008200055E40E94510EDC01CB018EA39FA3A8A723
:10083000B9A711E06EA17FA188A599A520E030E0BD
:1008400040E85FE30E94591088230CF010E0112368
:1008500029F081E090E09BA78AA746C011E06EA135
:100860007FA188A599A520E03FEF4FE757E40E94BC
:10087000F90F18160CF010E0112361F16AA17BA1A9
:100880008CA19DA120E030E040E251E40E94510E95
:10089000DC01CB01BC01CD010E947D0CDC01CB0150
:1008A0009BA78AA712C080E991E09DA78CA78CA581
:1008B0009DA58C01C8010197F1F78C011DA70CA71C
:1008C0008AA59BA501979BA78AA78AA59BA50097A8
:1008D00051F728C06EA17FA188A599A50E947D0C23
:1008E000DC01CB019BA78AA78AA59BA59FA78EA702
:1008F0008EA59FA58C01F8013197F1F78F011FA7F5
:100900000EA710C06D8D7E8D8F8D98A10E947D0CDD
:10091000DC01CB0189A389A188AB88A9182F1A957E
:10092000F1F718AB85E390E0FC01108280E090E0E5
:10093000A8E4B2E489AB9AABABABBCAB69A97AA92A
:100940008BA99CA92BEA3AEA4AEA50E40E94510E8C
:10095000DC01CB018DAB9EABAFABB8AF11E06DA9A5
:100960007EA98FA998AD20E030E040E85FE30E94C7
:10097000591088230CF010E0112319F081E089AFA1
:10098000E6C011E06DA97EA98FA998AD20E030E006
:100990004FE753E40E94F90F18160CF010E01123F2
:1009A00009F4CCC069A97AA98BA99CA920E030E000
:1009B0004AE754E40E944B0FDC01CB018AAF9BAFA6
:1009C000ACAFBDAF8E01025C1F4F6AAD7BAD8CAD8D
:1009D0009DAD20E030E04AE755E40E94510EDC0175
:1009E000CB01F80180839183A283B383CE01CE969D
:1009F00011E0FC01608171818281938120E030E00F
:100A000040E85FE30E94591088230CF010E01123A6
:100A100049F0CE018E5B9F4F21E030E0FC01318335
:100A200020836EC0CE01CE9611E0FC016081718101
:100A30008281938120E03FEF4FE757E40E94F90F56
:100A400018160CF010E0112309F449C06AAD7BAD13
:100A50008CAD9DAD20E030E040E251E40E94510EAB
:100A6000DC01CB018E010E5B1F4FBC01CD010E944A
:100A70007D0CDC01CB01F8019183808327C0CE017E
:100A80008C5B9F4F20E931E0FC0131832083CE0154
:100A90008C5B9F4FFC01808191818C01C801019783
:100AA000F1F78C01CE018C5B9F4FFC011183008319
:100AB000CE018E5B9F4F9E012E5B3F4FF90120813F
:100AC000318121503040FC0131832083CE018E5B87
:100AD0009F4FFC0180819181009789F64BC08E0168
:100AE0000E5B1F4FCE01CE96FC0160817181828129
:100AF00093810E947D0CDC01CB01F80191838083FE
:100B0000CE018A5B9F4F9E012E5B3F4FF9012081F2
:100B10003181FC0131832083CE018A5B9F4FFC0130
:100B2000808191818C01C8010197F1F78C01CE0180
:100B30008A5B9F4FFC01118300831CC06DA97EA9B5
:100B40008FA998AD0E947D0CDC01CB0189AFCE014D
:100B5000885B9F4F29ADFC012083CE01885B9F4FAE
:100B6000FC018081182F1A95F1F7CE01885B9F4F09
:100B7000FC011083C75BDF4F0FB6F894DEBF0FBEDA
:100B8000CDBFCF91DF911F910F9108950F931F93C8
:100B9000DF93CF93CDB7DEB7CC54D0400FB6F894E7
:100BA000DEBF0FBECDBF8BE390E0FC01108285E37A
:100BB00090E0FC01108280E090E0A8ECB2E4898330
:100BC0009A83AB83BC8369817A818B819C8120E08D
:100BD00030E04AE755E40E94510EDC01CB018D83E1
:100BE0009E83AF83B88711E06D817E818F81988568
:100BF00020E030E040E85FE30E94591088230CF0C9
:100C000010E0112329F081E090E09A87898746C09F
:100C100011E06D817E818F81988520E03FEF4FE765
:100C200057E40E94F90F18160CF010E0112361F13F
:100C300069817A818B819C8120E030E040E251E43F
:100C40000E94510EDC01CB01BC01CD010E947D0C44
:100C5000DC01CB019A87898712C080E991E09C87EB
:100C60008B878B859C858C01C8010197F1F78C01DE
:100C70001C870B8789859A8501979A87898789853B
:100C80009A85009751F717C06D817E818F81988575
:100C90000E947D0CDC01CB019A87898789859A8522
:100CA0009E878D878D859E858C01F8013197F1F7A0
:100CB0008F011E870D878CE30E94670080E090E023
:100CC000A0E2B1E48F87988BA98BBA8B6F85788966
:100CD00089899A8920E030E04AE755E40E94510E64
:100CE000DC01CB018B8B9C8BAD8BBE8B11E06B89B8
:100CF0007C898D899E8920E030E040E85FE30E9496
:100D0000591088230CF010E0112329F081E090E0C5
:100D1000988F8F8B46C011E06B897C898D899E8965
:100D200020E03FEF4FE757E40E94F90F18160CF050
:100D300010E0112361F16F85788989899A8920E013
:100D400030E040E251E40E94510EDC01CB01BC01D5
:100D5000CD010E947D0CDC01CB01988F8F8B12C0DE
:100D600080E991E09A8F898F898D9A8D8C01C801D5
:100D70000197F1F78C011A8F098F8F89988D019750
:100D8000988F8F8B8F89988D009751F717C06B893B
:100D90007C898D899E890E947D0CDC01CB01988F16
:100DA0008F8B8F89988D9C8F8B8F8B8D9C8D8C01D9
:100DB000F8013197F1F78F011C8F0B8F8CE30E94A4
:100DC000670080E090E0A8ECB2E48D8F9E8FAF8F3B
:100DD000B8A36D8D7E8D8F8D98A12BEA3AEA4AEAF1
:100DE00050E40E94510EDC01CB0189A39AA3ABA36E
:100DF000BCA311E069A17AA18BA19CA120E030E005
:100E000040E85FE30E94591088230CF010E01123A2
:100E100019F081E08DA3A3C011E069A17AA18BA193
:100E20009CA120E030E04FE753E40E94F90F181630
:100E30000CF010E0112309F489C06D8D7E8D8F8D2B
:100E400098A120E030E04AE754E40E944B0FDC0117
:100E5000CB018EA39FA3A8A7B9A76EA17FA188A548
:100E600099A520E030E04AE755E40E94510EDC01EC
:100E7000CB018AA79BA7ACA7BDA711E06AA57BA55C
:100E80008CA59DA520E030E040E85FE30E9459106A
:100E900088230CF010E0112329F081E090E09FA757
:100EA0008EA746C011E06AA57BA58CA59DA520E074
:100EB0003FEF4FE757E40E94F90F18160CF010E0CF
:100EC000112361F16EA17FA188A599A520E030E0F2
:100ED00040E251E40E94510EDC01CB01BC01CD0186
:100EE0000E947D0CDC01CB019FA78EA712C080E978
:100EF00091E099AB88AB88A999A98C01C8010197A9
:100F0000F1F78C0119AB08AB8EA59FA501979FA7A0
:100F10008EA78EA59FA5009751F728C06AA57BA52F
:100F20008CA59DA50E947D0CDC01CB019FA78EA7FF
:100F30008EA59FA59BAB8AAB8AA99BA98C01F801C2
:100F40003197F1F78F011BAB0AAB10C069A17AA1F1
:100F50008BA19CA10E947D0CDC01CB018DA38DA1F6
:100F60008CAB8CA9182F1A95F1F71CAB8CE30E945F
:100F7000670080E090E0A8ECB2E48DAB9EABAFAB35
:100F8000B8AF6DA97EA98FA998AD2BEA3AEA4AEAD3
:100F900050E40E94510EDC01CB0189AF9AAFABAF98
:100FA000BCAF11E069AD7AAD8BAD9CAD20E030E017
:100FB00040E85FE30E94591088230CF010E01123F1
:100FC00019F081E08DAFF3C011E069AD7AAD8BAD62
:100FD0009CAD20E030E04FE753E40E94F90F181673
:100FE0000CF010E0112309F4D9C06DA97EA98FA9D6
:100FF00098AD20E030E04AE754E40E944B0FDC015A
:10100000CB019E01225C3F4FF90180839183A28333
:10101000B3838E010E5B1F4FCE01CE96FC01608123
:1010200071818281938120E030E04AE755E40E949B
:10103000510EDC01CB01F80180839183A283B3833D
:10104000CE018E5B9F4F11E0FC0160817181828136
:10105000938120E030E040E85FE30E94591088234C
:101060000CF010E0112349F0CE018A5B9F4F21E084
:1010700030E0FC013183208373C0CE018E5B9F4F33
:1010800011E0FC01608171818281938120E03FEF5A
:101090004FE757E40E94F90F18160CF010E01123E7
:1010A00009F44CC0CE01CE96FC0160817181828131
:1010B000938120E030E040E251E40E94510EDC01D7
:1010C000CB018E010A5B1F4FBC01CD010E947D0C3C
:1010D000DC01CB01F8019183808327C0CE01885BBE
:1010E0009F4F20E931E0FC0131832083CE01885BF2
:1010F0009F4FFC01808191818C01C8010197F1F71C
:101100008C01CE01885B9F4FFC0111830083CE01CF
:101110008A5B9F4F9E012A5B3F4FF90120813181FD
:1011200021503040FC0131832083CE018A5B9F4FE8
:10113000FC0180819181009789F64CC08E010A5B89
:101140001F4FCE018E5B9F4FFC01608171818281B8
:1011500093810E947D0CDC01CB01F8019183808397
:10116000CE01865B9F4F9E012A5B3F4FF901208194
:101170003181FC0131832083CE01865B9F4FFC01CE
:10118000808191818C01C8010197F1F78C01CE011A
:10119000865B9F4FFC01118300831CC069AD7AAD53
:1011A0008BAD9CAD0E947D0CDC01CB018DAFCE01DF
:1011B000845B9F4F2DADFC012083CE01845B9F4F4C
:1011C000FC018081182F1A95F1F7CE01845B9F4FA7
:1011D000FC0110838CE30E9467008CE00E94670092
:1011E00081E00E94670086E00E946700C45BDF4FD9
:1011F0000FB6F894DEBF0FBECDBFCF91DF911F9128
:101200000F910895DF93CF930F92CDB7DEB7898307
:10121000898180680E9467000F90CF91DF910895C7
:10122000DF93CF9300D0CDB7DEB79A8389830BC00D
:1012300089819A81FC0180810E94BF0289819A8103
:1012400001969A83898389819A81FC018081882310
:1012500079F70F900F90CF91DF910895DF93CF939F
:101260000F92CDB7DEB7898389818A30C0F089813A
:10127000843640F0898194E6692F0E946B12805D6C
:101280000E94BF0289819AE0692F0E946B129AE046
:10129000692F0E946B12892F805D0E94BF02898195
:1012A0009AE0692F0E946B12892F805D0E94BF0215
:1012B00080E091E00E9410090F90CF91DF91089596
:1012C0000F931F93DF93CF93CDB7DEB769970FB618
:1012D000F894DEBF0FBECDBF898F82E390E0298DE9
:1012E000422F50E021E030E002C0220F331F4A9528
:1012F000E2F7FC01208380E090E0A0E2B1E4898382
:101300009A83AB83BC8369817A818B819C812BEA30
:101310003AEA4AEA50E40E94510EDC01CB018D8387
:101320009E83AF83B88711E06D817E818F81988520
:1013300020E030E040E85FE30E94591088230CF081
:1013400010E0112319F081E08987A3C011E06D81BD
:101350007E818F81988520E030E04FE753E40E9442
:10136000F90F18160CF010E0112309F489C06981F7
:101370007A818B819C8120E030E04AE754E40E942E
:101380004B0FDC01CB018A879B87AC87BD876A85C1
:101390007B858C859D8520E030E04AE755E40E94FE
:1013A000510EDC01CB018E879F87A88BB98B11E092
:1013B0006E857F858889998920E030E040E85FE389
:1013C0000E94591088230CF010E0112329F081E0CD
:1013D00090E09B8B8A8B46C011E06E857F85888963
:1013E000998920E03FEF4FE757E40E94F90F181664
:1013F0000CF010E0112361F16A857B858C859D8559
:1014000020E030E040E251E40E94510EDC01CB01CB
:10141000BC01CD010E947D0CDC01CB019B8B8A8B32
:1014200012C080E991E09D8B8C8B8C899D898C0109
:10143000C8010197F1F78C011D8B0C8B8A899B8960
:1014400001979B8B8A8B8A899B89009751F728C0CB
:101450006E857F85888999890E947D0CDC01CB018E
:101460009B8B8A8B8A899B899F8B8E8B8E899F8988
:101470008C01F8013197F1F78F011F8B0E8B10C093
:101480006D817E818F8198850E947D0CDC01CB016E
:1014900089878985888F888D182F1A95F1F7188F7D
:1014A00069960FB6F894DEBF0FBECDBFCF91DF9126
:1014B0001F910F910895DF93CF9300D000D00F922A
:1014C000CDB7DEB79D838C83198231C089810E949C
:1014D000600981E290E0FC018081807F8A838A81BB
:1014E00082958F708A831B8217C08B81882F90E032
:1014F00024E030E0A901481B590BCA012C813D8131
:10150000820F931F2A812170FC0120838A81869596
:101510008A838B818F5F8B838B81843030F38C81C6
:101520009D8104969D838C8389818F5F89838981C6
:10153000843060F20F900F900F900F900F90CF912A
:10154000DF910895DF93CF9300D000D0CDB7DEB701
:101550009A8389837C836B838B810E94600981E2FB
:1015600090E0FC01808182958F70882F90E09070D0
:1015700029813A81022E02C0959587950A94E2F757
:101580000F900F900F900F90CF91DF910895DF9300
:10159000CF930F92CDB7DEB7198210920F01109240
:1015A0000E0119822AC089810E94600981E290E0BF
:1015B000FC018081882F90E09C012F703070809119
:1015C0000E0190910F01820F931F90930F01809352
:1015D0000E0189818330A9F080910E0190910F0155
:1015E00082959295907F9827807F982790930F01FE
:1015F00080930E0189818F5F89838981843098F27D
:1016000001C000000F90CF91DF910895DF93CF9339
:10161000CDB7DEB70E94C70A20910C0130910D01B1
:1016200080910E0190910F012817390771F1809177
:101630000E0190910F0190930D0180930C01809108
:101640000E0190910F018130910511F481E01EC0CF
:1016500080910E0190910F018031910511F482E08B
:1016600015C080910E0190910F0121E0803092070A
:1016700011F483E00BC080910E0190910F0120E1E5
:101680008030920711F484E001C080E0CF91DF91B7
:101690000895DF93CF93CDB7DEB780910E0190917F
:1016A0000F01CF91DF910895DF93CF930F92CDB7C4
:1016B000DEB780E00E94020980911101898389814F
:1016C0009AE0692F0E946B12805D0E94BF0289819F
:1016D0009AE0692F0E946B12892F805D0E94BF02E1
:1016E0008AE30E94BF0280911201898389819AE076
:1016F000692F0E946B12805D0E94BF0289819AE06F
:10170000692F0E946B12892F805D0E94BF028AE3BD
:101710000E94BF0280911301898389819AE0692F19
:101720000E946B12805D0E94BF0289819AE0692F3E
:101730000E946B12892F805D0E94BF020F90CF9193
:10174000DF910895DF93CF9300D0CDB7DEB7198234
:101750001A821092130180911301809312018091DB
:101760001201809311018AE390E02FEFFC012083A6
:1017700084E390E02FEFFC01208382E290E0FC0103
:10178000108281E390E02FEFFC0120830E94C605C8
:1017900083E590E027E0FC01208382E590E022E8E9
:1017A000FC01208387E590E021E0FC0120838FE5A8
:1017B00090E020E8FC0120830E94540B80E00E940E
:1017C000600903C0000001C000000E94540B80911A
:1017D00010018D3730F1809110018D5780931001E9
:1017E000809113018F5F80931301809113018C33DB
:1017F000C1F4809112018F5F809312011092130146
:10180000809112018C3369F4809111018F5F809374
:1018100011011092120180911101883111F410927E
:1018200011010E94060B8A838A81823061F48091C3
:1018300012018F5F80931201809112018C3391F419
:10184000109212010FC08A81813061F480911201DF
:10185000882319F48CE38093120180911201815046
:10186000809312018A81843069F4809111018F5F25
:101870008093110180911101883109F0A3CF10925A
:101880001101A3CF8A81833009F09ECF809111018D
:10189000882319F488E1809311018091110181500E
:1018A0008093110192CF1F920F920FB60F9200906A
:1018B0005B000F9211242F938F939F93EF93FF93CD
:1018C000DF93CF93CDB7DEB780911001805F809317
:1018D000100182E590E023E8FC012083CF91DF91A5
:1018E000FF91EF919F918F912F910F9000925B004C
:1018F0000F900FBE0F901F901895EF92FF920F93CD
:101900001F937B018C0120E030E040E05FE40E9407
:10191000291087FD11C0C801B70120E030E040E088
:101920005FE40E94200E0E9489109B01AC012050B0
:1019300030404040504806C0C801B7010E9489109D
:101940009B01AC01B901CA011F910F91FF90EF906B
:101950000895A0E0B0E0EFEAFCE00C947B12FC01FB
:10196000EA018081823008F438C1DB019C91923019
:1019700008F430C1843059F4943009F02EC19181BB
:1019800011968C911197981709F021C126C19430B6
:1019900009F420C19230B1F4823009F01EC1CA01AD
:1019A000AF0128E0DA010D90AD01DC010D92CD010F
:1019B0002150C1F7DB0111968C91119791818923F8
:1019C00089830AC1823009F405C1C280D380DB015A
:1019D00012966D907C9013972481358146815781B2
:1019E0001496ED90FD900D911C911797C6018619E4
:1019F00097095C0197FF04C0AA24BB24A81AB90A5E
:101A0000B0E2AB16B1040CF061C0181619066CF503
:101A1000370148010A2C04C0969487947794679400
:101A20000A94D2F781E090E0A0E0B0E00A2C04C074
:101A3000880F991FAA1FBB1F0A94D2F70197A1090B
:101A4000B1098E219F21A023B123EE24FF24870119
:101A5000E3940097A105B10519F4EE24FF24870152
:101A6000E628F728082919293CC00097D1F1CA0CAB
:101A7000DB1C39014A010A2C04C0969487947794A0
:101A800067940A94D2F781E090E0A0E0B0E00A2CDD
:101A900004C0880F991FAA1FBB1F0A94D2F7019791
:101AA000A109B10982239323A423B52321E030E0C7
:101AB00040E050E00097A105B10519F420E030E0C6
:101AC000A90126293729482959290BC06C147D04FE
:101AD00024F4EE24FF24870104C0630120E030E0F9
:101AE000A9018181FB019181891709F445C08823EF
:101AF00049F0D801C701821B930BA40BB50B9C01C5
:101B0000AD0104C02E193F09400B510B57FD04C015
:101B10001982DB82CA820BC081E08983DB82CA82A0
:101B200050954095309521953F4F4F4F5F4F2C83F7
:101B30003D834E835F830DC0880F991FAA1FBB1F73
:101B40008C839D83AE83BF838A819B8101979B8316
:101B50008A838C819D81AE81BF819C01AD01215022
:101B60003040404050402F3FEFEF3E07EFEF4E0731
:101B7000EFE35E0708F30BC08983DB82CA822E0D78
:101B80003F1D401F511F2C833D834E835F8383E0A5
:101B900088832C813D814E815F8157FF1DC0DA0112
:101BA000C90181709070A070B070569547953795B7
:101BB0002795822B932BA42BB52B8C839D83AE83EF
:101BC000BF838A819B8101969B838A8305C0E4E061
:101BD000F1E003C0FB0101C0FE01CF01CDB7DEB7CC
:101BE000EEE00C949712A0E2B0E0E9EFFDE00C9477
:101BF000831269837A838B839C832D833E834F83F7
:101C0000588789E0E82EF12CEC0EFD1ECE010196DE
:101C1000B7010E94A9118E010F5E1F4FCE010596DC
:101C2000B8010E94A911C701B801AE01475E5F4F1C
:101C30000E94A90C0E94DB10A096E6E00C949F1273
:101C4000A0E2B0E0E6E2FEE00C94831269837A83BE
:101C50008B839C832D833E834F8358878E01075F40
:101C60001F4FCE010196B8010E94A91191E1E92E02
:101C7000F12CEC0EFD1ECE010596B7010E94A911B4
:101C80008A8991E089278A8BC801B701AE01475E36
:101C90005F4F0E94A90C0E94DB10A096E6E00C9416
:101CA0009F12A0E2B0E0E7E5FEE00C9477126983B2
:101CB0007A838B839C832D833E834F835887CE0109
:101CC0000196BE01675F7F4F0E94A911CE01059664
:101CD000BE016F5E7F4F0E94A9119985923078F006
:101CE00089898230C0F0943019F4823041F4CBC03D
:101CF000843019F4923079F4C6C0923051F481E006
:101D00002A859A89291709F480E08A87CE010996E5
:101D1000BCC0823051F481E02A859A89291709F4E0
:101D200080E08A8BCE014196B0C06D847E848F8422
:101D30009888ED88FE880F89188DE0E2F0E080E059
:101D400090E0DC01AA24BB24650120E030E0A90179
:101D5000B3016170707061157105D1F02E0D3F1DDA
:101D6000401F511F15012601280E391E4A1E5B1EF9
:101D700081E090E0A0E0B0E02E153F05400751075C
:101D800018F080E090E0DC01820D931DA41DB51DCC
:101D9000AA0CBB1CCC1CDD1C17FF09C061E0262E61
:101DA000312C412C512CA228B328C428D528319796
:101DB00049F0EE0CFF1C001F111F96948794779436
:101DC0006794C6CF6B897C89EB85FC856E0F7F1F7E
:101DD0006E5F7F4F7C8F6B8F61E0EA857A89E717B2
:101DE00009F460E06A8F6B8D7C8D10C0FC01E1709E
:101DF000F070309729F0569547953795279550689C
:101E0000B695A795979587956F5F7F4FB7FDEECFF6
:101E10000CC0880F991FAA1FBB1F57FD8160220F9E
:101E2000331F441F551F615070408030E0E09E0713
:101E3000E0E0AE07E0E4BE0760F36B8F7C8F6FE7F6
:101E4000E62EF12C012D112DE822F9220A231B2365
:101E500060E4E616F1040105110561F487FD0AC08E
:101E6000211531054105510529F0805C9F4FAF4F89
:101E7000BF4F80788D8F9E8FAF8FB8A383E0898FFF
:101E8000CE01499602C084E091E00E94DB10A0964A
:101E9000E2E10C949312A8E1B0E0E1E5FFE00C94DC
:101EA0007F1269837A838B839C832D833E834F8348
:101EB00058878E01075F1F4FCE010196B8010E941F
:101EC000A91181E1E82EF12CEC0EFD1ECE01059644
:101ED000B7010E94A9119985923008F483C08989BD
:101EE000823008F47BC02A853A8923272A879430D8
:101EF00011F0923021F4981709F06CC071C0843051
:101F000039F41D861E861F86188A1C861B866AC0A9
:101F1000823019F484E0898765C08B859C852B8984
:101F20003C89821B930B9C878B872D853E854F8533
:101F30005889ED88FE880F89188D2E153F054007BA
:101F4000510738F4220F331F441F551F01979C87F8
:101F50008B876FE170E0A12CB12CC12CA0E4DA2EAC
:101F600080E090E0DC012E153F054007510740F06E
:101F70008A299B29AC29BD292E193F09400B510BF9
:101F8000D694C794B794A794220F331F441F551FAC
:101F90006150704041F76FE7E62EF12C012D112DB5
:101FA000E822F9220A231B2360E4E616F104010566
:101FB000110561F487FD0AC0211531054105510560
:101FC00029F0805C9F4FAF4FBF4F80788D879E87F1
:101FD000AF87B88B8E01075F1F4F04C0870102C017
:101FE00004E011E0C8010E94DB106896EAE00C945E
:101FF0009B12A8E1B0E0EFEFFFE00C94831269833D
:102000007A838B839C832D833E834F8358878E01F5
:10201000075F1F4FCE010196B8010E94A91181E10F
:10202000E82EF12CEC0EFD1ECE010596B7010E94A4
:10203000A9118985823040F08989823028F0C80151
:10204000B7010E94121201C08FEF6896E6E00C946F
:102050009F12A8E1B0E0EFE2F0E10C9483126983F3
:102060007A838B839C832D833E834F8358878E0195
:10207000075F1F4FCE010196B8010E94A91181E1AF
:10208000E82EF12CEC0EFD1ECE010596B7010E9444
:10209000A9118985823040F08989823028F0C801F1
:1020A000B7010E94121201C08FEF6896E6E00C940F
:1020B0009F12A8E1B0E0EFE5F0E10C948312698390
:1020C0007A838B839C832D833E834F8358878E0135
:1020D000075F1F4FCE010196B8010E94A91181E14F
:1020E000E82EF12CEC0EFD1ECE010596B7010E94E4
:1020F000A9118985823040F08989823028F0C80191
:10210000B7010E94121201C081E06896E6E00C94CB
:102110009F12ACE0B0E0EFE8F0E10C948712698325
:102120007A838B839C83CE010196BE016B5F7F4FC8
:102130000E94A9118D81823081F1823070F184304A
:1021400021F48E81882369F10AC02F81388537FDFB
:1021500024C06E812F3131053CF0662311F120E05F
:1021600030E040E050E821C08EE190E0821B930B0C
:1021700029853A854B855C8504C0569547953795EA
:1021800027958A95D2F7662381F050954095309532
:1021900021953F4F4F4F5F4F08C020E030E0A9012D
:1021A00004C02FEF3FEF4FEF5FE7B901CA012C9654
:1021B000E2E00C94A312EF92FF920F931F93CF9340
:1021C000DF93FC01248135814681578161818081C3
:1021D000823020F44061EFEFF0E0A3C0843009F4D6
:1021E0009BC0823009F492C021153105410551058B
:1021F00009F48FC00280F381E02D8FEFE238F807F9
:102200000CF05AC0C2E8DFEFCE1BDF0BCA31D1059C
:102210006CF579018A010C2E04C016950795F79488
:10222000E7940A94D2F781E090E0A0E0B0E00C2EB1
:1022300004C0880F991FAA1FBB1F0A94D2F70197E9
:10224000A109B10982239323A423B52321E030E01F
:1022500040E050E00097A105B10519F420E030E01E
:10226000A9012E293F29402B512B03C020E030E04B
:10227000A901DA01C9018F779070A070B070803425
:102280009105A105B10539F427FF09C0205C3F4F36
:102290004F4F5F4F04C0215C3F4F4F4F5F4FE1E016
:1022A000F0E0203080E0380780E0480780E45807FD
:1022B00028F5E0E0F0E022C0E038F1056CF5E158E7
:1022C000FF4FDA01C9018F779070A070B070803431
:1022D0009105A105B10539F427FF09C0205C3F4FE6
:1022E0004F4F5F4F04C0215C3F4F4F4F5F4F57FF31
:1022F00005C05695479537952795319687E05695B1
:102300004795379527958A95D1F70BC0E0E0F0E027
:1023100005C0E0E0F0E005C0EFEFF0E020E030E0E5
:10232000A9018E2F879588278795942F9F7767958A
:1023300066276795E695E22EA92FA82BFE2FF62B90
:10234000622F732F8A2F9F2FCDB7DEB7E6E00C9454
:102350009F12DC01FB012C9111963C911197129672
:102360008C911297482F4F7750E0982F991F9927FB
:10237000991F13966C911397862F880F892B90E0E5
:10238000661F6627661F6183009739F521153105A1
:102390004105510511F482E029C082E89FEF938343
:1023A000828367E0220F331F441F551F6A95D1F7C0
:1023B00083E0808309C0220F331F441F551F828191
:1023C0009381019793838283203080E0380780E0F7
:1023D000480780E4580778F320C08F3F910579F4CF
:1023E000211531054105510519F484E080830895D4
:1023F00044FF03C081E0808310C010820EC08F575D
:1024000090409383828383E0808387E0220F331F91
:10241000441F551F8A95D1F7506424833583468322
:1024200057830895FC01DB019081923008F449C084
:102430008C91823008F445C0943051F4618184302D
:10244000B1F511962C91119730E0261B310941C04E
:10245000843021F0923041F48230B1F111968C91A8
:1024600011978823A1F12DC06181823001F111966D
:102470008C9111976817D9F42281338112968D912E
:102480009C9113978217930794F028173907BCF093
:10249000248135814681578114968D919D910D90AF
:1024A000BC91A02D82179307A407B50718F46623E3
:1024B00041F00DC0281739074A075B0728F4662347
:1024C00031F021E030E005C020E030E002C02FEF25
:1024D0003FEFC9010895991B79E004C0991F961731
:1024E00008F0961B881F7A95C9F7809508952F925A
:1024F0003F924F925F926F927F928F929F92AF9294
:10250000BF92CF92DF92EF92FF920F931F93CF93E0
:10251000DF93CDB7DEB7CA1BDB0B0FB6F894DEBF77
:102520000FBECDBF09942A88398848885F846E849D
:102530007D848C849B84AA84B984C884DF80EE80E7
:10254000FD800C811B81AA81B981CE0FD11D0FB6F0
:10255000F894DEBF0FBECDBFED010895F894FFCF14
:0C2560002020200000000000000000000F
:00000001FF
