:100000000C9446000C9465000C9465000C946500FB
:100010000C9465000C9465000C9465000C946500CC
:100020000C9465000C9465000C9465000C946500BC
:100030000C9465000C9465000C9465000C946500AC
:100040000C942B0F0C9465000C9465000C946500C7
:100050000C9465000C9465000C9465000C9465008C
:100060000C9465000C9465000C9465000C9465007C
:100070000C9465000C9465000C9465000C9465006C
:100080000C9465000C9465000C94650011241FBE4F
:10009000CFEFD0E1DEBFCDBF11E0A0E0B1E0E8ECF2
:1000A000FBE200E00BBF02C007900D92A632B10741
:1000B000D9F711E0A6E2B1E001C01D92A933B10762
:1000C000E1F70E94D70E0C94E2150C9400000F93F8
:1000D0001F93DF93CF93CDB7DEB7EF970FB6F894AA
:1000E000DEBF0FBECDBF8FAF85E390E0FC01108275
:1000F0008BE390E02FADFC01208380E090E0A0E84E
:10010000BFE389839A83AB83BC8369817A818B81C6
:100110009C812BEA3AEA4AEA50E40E942911DC0168
:10012000CB018D839E83AF83B88711E06D817E8183
:100130008F81988520E030E040E85FE30E94311332
:1001400088230CF010E0112319F081E08987A3C007
:1001500011E06D817E818F81988520E030E04FE74E
:1001600053E40E94D11218160CF010E0112309F488
:1001700089C069817A818B819C8120E030E04AE7E7
:1001800054E40E942312DC01CB018A879B87AC8751
:10019000BD876A857B858C859D8520E030E04AE7B8
:1001A00055E40E942911DC01CB018E879F87A88B23
:1001B000B98B11E06E857F858889998920E030E0D0
:1001C00040E85FE30E94311388230CF010E0112314
:1001D00029F081E090E09B8B8A8B46C011E06E8510
:1001E0007F858889998920E03FEF4FE757E40E9497
:1001F000D11218160CF010E0112361F16A857B858D
:100200008C859D8520E030E040E251E40E94291178
:10021000DC01CB01BC01CD010E94550FDC01CB01FB
:100220009B8B8A8B12C080E991E09D8B8C8B8C8993
:100230009D898C01C8010197F1F78C011D8B0C8BF6
:100240008A899B8901979B8B8A8B8A899B890097D6
:1002500051F728C06E857F85888999890E94550F3E
:10026000DC01CB019B8B8A8B8A899B899F8B8E8B30
:100270008E899F898C01F8013197F1F78F011F8BCF
:100280000E8B10C06D817E818F8198850E94550FE5
:10029000DC01CB0189878985888F888D182F1A9575
:1002A000F1F7188F85E390E025E330E0F901208134
:1002B0002460FC01208380E090E0A0E2B1E4898F1B
:1002C0009A8FAB8FBC8F698D7A8D8B8D9C8D2BEA2D
:1002D0003AEA4AEA50E40E942911DC01CB018D8FF1
:1002E0009E8FAF8FB8A311E06D8D7E8D8F8D98A1FD
:1002F00020E030E040E85FE30E94311388230CF0F7
:1003000010E0112319F081E089A3A3C011E06D8DE5
:100310007E8D8F8D98A120E030E04FE753E40E945E
:10032000D11218160CF010E0112309F489C0698D60
:100330007A8D8B8D9C8D20E030E04AE754E40E945A
:100340002312DC01CB018AA39BA3ACA3BDA36AA1AA
:100350007BA18CA19DA120E030E04AE755E40E94FA
:100360002911DC01CB018EA39FA3A8A7B9A711E097
:100370006EA17FA188A599A520E030E040E85FE369
:100380000E94311388230CF010E0112329F081E042
:1003900090E09BA78AA746C011E06EA17FA188A527
:1003A00099A520E03FEF4FE757E40E94D1121816BD
:1003B0000CF010E0112361F16AA17BA18CA19DA139
:1003C00020E030E040E251E40E942911DC01CB0141
:1003D000BC01CD010E94550FDC01CB019BA78AA770
:1003E00012C080E991E09DA78CA78CA59DA58C01EA
:1003F000C8010197F1F78C011DA70CA78AA59BA541
:1004000001979BA78AA78AA59BA5009751F728C0AB
:100410006EA17FA188A599A50E94550FDC01CB0193
:100420009BA78AA78AA59BA59FA78EA78EA59FA5F8
:100430008C01F8013197F1F78F011FA70EA710C0AB
:100440006D8D7E8D8F8D98A10E94550FDC01CB01A3
:1004500089A389A188AB88A9182F1A95F1F718AB41
:1004600085E390E0FC01108280E090E0A0E8BFE32B
:1004700089AB9AABABABBCAB69A97AA98BA99CA998
:1004800020E030E04AE755E40E942911DC01CB016D
:100490008DAB9EABAFABB8AF11E06DA97EA98FA9B4
:1004A00098AD20E030E040E85FE30E9431138823FC
:1004B0000CF010E0112329F081E090E09AAF89AFB1
:1004C00046C011E06DA97EA98FA998AD20E03FEF4D
:1004D0004FE757E40E94D11218160CF010E01123D8
:1004E00061F169A97AA98BA99CA920E030E040E2DA
:1004F00051E40E942911DC01CB01BC01CD010E9415
:10050000550FDC01CB019AAF89AF12C080E991E0B1
:100510009CAF8BAF8BAD9CAD8C01C8010197F1F7FF
:100520008C011CAF0BAF89AD9AAD01979AAF89AF23
:1005300089AD9AAD009751F717C06DA97EA98FA913
:1005400098AD0E94550FDC01CB019AAF89AF89AD00
:100550009AAD9EAF8DAF8DAD9EAD8C01F8013197F8
:10056000F1F78F011EAF0DAFEF960FB6F894DEBF17
:100570000FBECDBFCF91DF911F910F9108950F93C3
:100580001F93DF93CF93CDB7DEB7C954D0400FB6DA
:10059000F894DEBF0FBECDBF9E01275B3F4FF90130
:1005A000808385E390E021E0FC0120838BE390E0F1
:1005B0009E01275B3F4FF9012081FC01208380E0F1
:1005C00090E0A0E8BFE389839A83AB83BC83698111
:1005D0007A818B819C812BEA3AEA4AEA50E40E94B4
:1005E0002911DC01CB018D839E83AF83B88711E095
:1005F0006D817E818F81988520E030E040E85FE367
:100600000E94311388230CF010E0112319F081E0CF
:100610008987A3C011E06D817E818F81988520E05C
:1006200030E04FE753E40E94D11218160CF010E0AE
:10063000112309F489C069817A818B819C8120E032
:1006400030E04AE754E40E942312DC01CB018A87A0
:100650009B87AC87BD876A857B858C859D8520E0DF
:1006600030E04AE755E40E942911DC01CB018E8776
:100670009F87A88BB98B11E06E857F8588899989C2
:1006800020E030E040E85FE30E94311388230CF063
:1006900010E0112329F081E090E09B8B8A8B46C00B
:1006A00011E06E857F858889998920E03FEF4FE7CB
:1006B00057E40E94D11218160CF010E0112361F1DA
:1006C0006A857B858C859D8520E030E040E251E4A1
:1006D0000E942911DC01CB01BC01CD010E94550F04
:1006E000DC01CB019B8B8A8B12C080E991E09D8B52
:1006F0008C8B8C899D898C01C8010197F1F78C0145
:100700001D8B0C8B8A899B8901979B8B8A8B8A898D
:100710009B89009751F728C06E857F8588899989C4
:100720000E94550FDC01CB019B8B8A8B8A899B89A8
:100730009F8B8E8B8E899F898C01F8013197F1F701
:100740008F011F8B0E8B10C06D817E818F819885EC
:100750000E94550FDC01CB0189878985888F888DA0
:10076000182F1A95F1F7188F85E390E025E330E014
:10077000F90120812460FC01208380E090E0A0E268
:10078000B1E4898F9A8FAB8FBC8F698D7A8D8B8DF9
:100790009C8D2BEA3AEA4AEA50E40E942911DC01D6
:1007A000CB018D8F9E8FAF8FB8A311E06D8D7E8DA5
:1007B0008F8D98A120E030E040E85FE30E94311384
:1007C00088230CF010E0112319F081E089A3A3C065
:1007D00011E06D8D7E8D8F8D98A120E030E04FE788
:1007E00053E40E94D11218160CF010E0112309F402
:1007F00089C0698D7A8D8B8D9C8D20E030E04AE731
:1008000054E40E942312DC01CB018AA39BA3ACA376
:10081000BDA36AA17BA18CA19DA120E030E04AE7A5
:1008200055E40E942911DC01CB018EA39FA3A8A748
:10083000B9A711E06EA17FA188A599A520E030E0BD
:1008400040E85FE30E94311388230CF010E011238D
:1008500029F081E090E09BA78AA746C011E06EA135
:100860007FA188A599A520E03FEF4FE757E40E94BC
:10087000D11218160CF010E0112361F16AA17BA1CE
:100880008CA19DA120E030E040E251E40E942911BA
:10089000DC01CB01BC01CD010E94550FDC01CB0175
:1008A0009BA78AA712C080E991E09DA78CA78CA581
:1008B0009DA58C01C8010197F1F78C011DA70CA71C
:1008C0008AA59BA501979BA78AA78AA59BA50097A8
:1008D00051F728C06EA17FA188A599A50E94550F48
:1008E000DC01CB019BA78AA78AA59BA59FA78EA702
:1008F0008EA59FA58C01F8013197F1F78F011FA7F5
:100900000EA710C06D8D7E8D8F8D98A10E94550F02
:10091000DC01CB0189A389A188AB88A9182F1A957E
:10092000F1F718AB85E390E0FC01108280E090E0E5
:10093000A8E4B2E489AB9AABABABBCAB69A97AA92A
:100940008BA99CA92BEA3AEA4AEA50E40E942911B1
:10095000DC01CB018DAB9EABAFABB8AF11E06DA9A5
:100960007EA98FA998AD20E030E040E85FE30E94C7
:10097000311388230CF010E0112319F081E089AFC6
:10098000E6C011E06DA97EA98FA998AD20E030E006
:100990004FE753E40E94D11218160CF010E0112317
:1009A00009F4CCC069A97AA98BA99CA920E030E000
:1009B0004AE754E40E942312DC01CB018AAF9BAFCB
:1009C000ACAFBDAF8E01025C1F4F6AAD7BAD8CAD8D
:1009D0009DAD20E030E04AE755E40E942911DC019A
:1009E000CB01F80180839183A283B383CE01CE969D
:1009F00011E0FC01608171818281938120E030E00F
:100A000040E85FE30E94311388230CF010E01123CB
:100A100049F0CE018E5B9F4F21E030E0FC01318335
:100A200020836EC0CE01CE9611E0FC016081718101
:100A30008281938120E03FEF4FE757E40E94D1127B
:100A400018160CF010E0112309F449C06AAD7BAD13
:100A50008CAD9DAD20E030E040E251E40E942911D0
:100A6000DC01CB018E010E5B1F4FBC01CD010E944A
:100A7000550FDC01CB01F8019183808327C0CE01A3
:100A80008C5B9F4F20E931E0FC0131832083CE0154
:100A90008C5B9F4FFC01808191818C01C801019783
:100AA000F1F78C01CE018C5B9F4FFC011183008319
:100AB000CE018E5B9F4F9E012E5B3F4FF90120813F
:100AC000318121503040FC0131832083CE018E5B87
:100AD0009F4FFC0180819181009789F64BC08E0168
:100AE0000E5B1F4FCE01CE96FC0160817181828129
:100AF00093810E94550FDC01CB01F8019183808323
:100B0000CE018A5B9F4F9E012E5B3F4FF9012081F2
:100B10003181FC0131832083CE018A5B9F4FFC0130
:100B2000808191818C01C8010197F1F78C01CE0180
:100B30008A5B9F4FFC01118300831CC06DA97EA9B5
:100B40008FA998AD0E94550FDC01CB0189AFCE0172
:100B5000885B9F4F29ADFC012083CE01885B9F4FAE
:100B6000FC018081182F1A95F1F7CE01885B9F4F09
:100B7000FC011083C75BDF4F0FB6F894DEBF0FBEDA
:100B8000CDBFCF91DF911F910F9108950F931F93C8
:100B9000DF93CF93CDB7DEB7CC54D0400FB6F894E7
:100BA000DEBF0FBECDBF8BE390E0FC01108285E37A
:100BB00090E0FC01108280E090E0A8ECB2E4898330
:100BC0009A83AB83BC8369817A818B819C8120E08D
:100BD00030E04AE755E40E942911DC01CB018D8306
:100BE0009E83AF83B88711E06D817E818F81988568
:100BF00020E030E040E85FE30E94311388230CF0EE
:100C000010E0112329F081E090E09A87898746C09F
:100C100011E06D817E818F81988520E03FEF4FE765
:100C200057E40E94D11218160CF010E0112361F164
:100C300069817A818B819C8120E030E040E251E43F
:100C40000E942911DC01CB01BC01CD010E94550F8E
:100C5000DC01CB019A87898712C080E991E09C87EB
:100C60008B878B859C858C01C8010197F1F78C01DE
:100C70001C870B8789859A8501979A87898789853B
:100C80009A85009751F717C06D817E818F81988575
:100C90000E94550FDC01CB019A87898789859A8547
:100CA0009E878D878D859E858C01F8013197F1F7A0
:100CB0008F011E870D878CE30E94670080E090E023
:100CC000A0E2B1E48F87988BA98BBA8B6F85788966
:100CD00089899A8920E030E04AE755E40E94291189
:100CE000DC01CB018B8B9C8BAD8BBE8B11E06B89B8
:100CF0007C898D899E8920E030E040E85FE30E9496
:100D0000311388230CF010E0112329F081E090E0EA
:100D1000988F8F8B46C011E06B897C898D899E8965
:100D200020E03FEF4FE757E40E94D11218160CF075
:100D300010E0112361F16F85788989899A8920E013
:100D400030E040E251E40E942911DC01CB01BC01FA
:100D5000CD010E94550FDC01CB01988F8F8B12C003
:100D600080E991E09A8F898F898D9A8D8C01C801D5
:100D70000197F1F78C011A8F098F8F89988D019750
:100D8000988F8F8B8F89988D009751F717C06B893B
:100D90007C898D899E890E94550FDC01CB01988F3B
:100DA0008F8B8F89988D9C8F8B8F8B8D9C8D8C01D9
:100DB000F8013197F1F78F011C8F0B8F8CE30E94A4
:100DC000670080E090E0A8ECB2E48D8F9E8FAF8F3B
:100DD000B8A36D8D7E8D8F8D98A12BEA3AEA4AEAF1
:100DE00050E40E942911DC01CB0189A39AA3ABA393
:100DF000BCA311E069A17AA18BA19CA120E030E005
:100E000040E85FE30E94311388230CF010E01123C7
:100E100019F081E08DA3A3C011E069A17AA18BA193
:100E20009CA120E030E04FE753E40E94D112181655
:100E30000CF010E0112309F489C06D8D7E8D8F8D2B
:100E400098A120E030E04AE754E40E942312DC013C
:100E5000CB018EA39FA3A8A7B9A76EA17FA188A548
:100E600099A520E030E04AE755E40E942911DC0111
:100E7000CB018AA79BA7ACA7BDA711E06AA57BA55C
:100E80008CA59DA520E030E040E85FE30E9431138F
:100E900088230CF010E0112329F081E090E09FA757
:100EA0008EA746C011E06AA57BA58CA59DA520E074
:100EB0003FEF4FE757E40E94D11218160CF010E0F4
:100EC000112361F16EA17FA188A599A520E030E0F2
:100ED00040E251E40E942911DC01CB01BC01CD01AB
:100EE0000E94550FDC01CB019FA78EA712C080E99D
:100EF00091E099AB88AB88A999A98C01C8010197A9
:100F0000F1F78C0119AB08AB8EA59FA501979FA7A0
:100F10008EA78EA59FA5009751F728C06AA57BA52F
:100F20008CA59DA50E94550FDC01CB019FA78EA724
:100F30008EA59FA59BAB8AAB8AA99BA98C01F801C2
:100F40003197F1F78F011BAB0AAB10C069A17AA1F1
:100F50008BA19CA10E94550FDC01CB018DA38DA11B
:100F60008CAB8CA9182F1A95F1F71CAB8CE30E945F
:100F7000670080E090E0A8ECB2E48DAB9EABAFAB35
:100F8000B8AF6DA97EA98FA998AD2BEA3AEA4AEAD3
:100F900050E40E942911DC01CB0189AF9AAFABAFBD
:100FA000BCAF11E069AD7AAD8BAD9CAD20E030E017
:100FB00040E85FE30E94311388230CF010E0112316
:100FC00019F081E08DAFF3C011E069AD7AAD8BAD62
:100FD0009CAD20E030E04FE753E40E94D112181698
:100FE0000CF010E0112309F4D9C06DA97EA98FA9D6
:100FF00098AD20E030E04AE754E40E942312DC017F
:10100000CB019E01225C3F4FF90180839183A28333
:10101000B3838E010E5B1F4FCE01CE96FC01608123
:1010200071818281938120E030E04AE755E40E949B
:101030002911DC01CB01F80180839183A283B38362
:10104000CE018E5B9F4F11E0FC0160817181828136
:10105000938120E030E040E85FE30E943113882371
:101060000CF010E0112349F0CE018A5B9F4F21E084
:1010700030E0FC013183208373C0CE018E5B9F4F33
:1010800011E0FC01608171818281938120E03FEF5A
:101090004FE757E40E94D11218160CF010E011230C
:1010A00009F44CC0CE01CE96FC0160817181828131
:1010B000938120E030E040E251E40E942911DC01FC
:1010C000CB018E010A5B1F4FBC01CD010E94550F61
:1010D000DC01CB01F8019183808327C0CE01885BBE
:1010E0009F4F20E931E0FC0131832083CE01885BF2
:1010F0009F4FFC01808191818C01C8010197F1F71C
:101100008C01CE01885B9F4FFC0111830083CE01CF
:101110008A5B9F4F9E012A5B3F4FF90120813181FD
:1011200021503040FC0131832083CE018A5B9F4FE8
:10113000FC0180819181009789F64CC08E010A5B89
:101140001F4FCE018E5B9F4FFC01608171818281B8
:1011500093810E94550FDC01CB01F80191838083BC
:10116000CE01865B9F4F9E012A5B3F4FF901208194
:101170003181FC0131832083CE01865B9F4FFC01CE
:10118000808191818C01C8010197F1F78C01CE011A
:10119000865B9F4FFC01118300831CC069AD7AAD53
:1011A0008BAD9CAD0E94550FDC01CB018DAFCE0104
:1011B000845B9F4F2DADFC012083CE01845B9F4F4C
:1011C000FC018081182F1A95F1F7CE01845B9F4FA7
:1011D000FC0110838CE30E9467008CE00E94670092
:1011E00081E00E94670086E00E946700C45BDF4FD9
:1011F0000FB6F894DEBF0FBECDBFCF91DF911F9128
:101200000F910895DF93CF930F92CDB7DEB7898307
:10121000898180680E9467000F90CF91DF910895C7
:10122000DF93CF9300D0CDB7DEB79A8389830BC00D
:1012300089819A81FC0180810E94BF0289819A8103
:1012400001969A83898389819A81FC018081882310
:1012500079F70F900F90CF91DF910895DF93CF939F
:1012600000D000D0CDB7DEB769837A838B839C83AF
:1012700089819A81AB81BC818A309105A105B10534
:1012800094F089819A81AB81BC812AE030E040E012
:1012900050E0BC01CD010E946E15DA01C901BC010C
:1012A000CD010E942E0989819A81AB81BC812AE0FF
:1012B00030E040E050E0BC01CD010E946E15DC0141
:1012C000CB01805D0E94BF020F900F900F900F9096
:1012D000CF91DF910895DF93CF9300D000D0CDB7A9
:1012E000DEB769837A838B839C8389819A81AB8102
:1012F000BC81BB2394F48DE20E94BF0289819A8154
:10130000AB81BC81B095A095909581959F4FAF4FD3
:10131000BF4F89839A83AB83BC8389819A81AB81D8
:10132000BC81BC01CD010E942E090F900F900F903F
:101330000F90CF91DF9108950F931F93DF93CF9379
:10134000CDB7DEB769970FB6F894DEBF0FBECDBF3D
:10135000898F82E390E0298D422F50E021E030E038
:1013600002C0220F331F4A95E2F7FC01208380E080
:1013700090E0A0E2B1E489839A83AB83BC83698166
:101380007A818B819C812BEA3AEA4AEA50E40E94F6
:101390002911DC01CB018D839E83AF83B88711E0D7
:1013A0006D817E818F81988520E030E040E85FE3A9
:1013B0000E94311388230CF010E0112319F081E012
:1013C0008987A3C011E06D817E818F81988520E09F
:1013D00030E04FE753E40E94D11218160CF010E0F1
:1013E000112309F489C069817A818B819C8120E075
:1013F00030E04AE754E40E942312DC01CB018A87E3
:101400009B87AC87BD876A857B858C859D8520E021
:1014100030E04AE755E40E942911DC01CB018E87B8
:101420009F87A88BB98B11E06E857F858889998904
:1014300020E030E040E85FE30E94311388230CF0A5
:1014400010E0112329F081E090E09B8B8A8B46C04D
:1014500011E06E857F858889998920E03FEF4FE70D
:1014600057E40E94D11218160CF010E0112361F11C
:101470006A857B858C859D8520E030E040E251E4E3
:101480000E942911DC01CB01BC01CD010E94550F46
:10149000DC01CB019B8B8A8B12C080E991E09D8B94
:1014A0008C8B8C899D898C01C8010197F1F78C0187
:1014B0001D8B0C8B8A899B8901979B8B8A8B8A89D0
:1014C0009B89009751F728C06E857F858889998907
:1014D0000E94550FDC01CB019B8B8A8B8A899B89EB
:1014E0009F8B8E8B8E899F898C01F8013197F1F744
:1014F0008F011F8B0E8B10C06D817E818F8198852F
:101500000E94550FDC01CB0189878985888F888DE2
:10151000182F1A95F1F7188F69960FB6F894DEBF59
:101520000FBECDBFCF91DF911F910F910895DF9333
:10153000CF930F92CDB7DEB7198210922901109286
:10154000280119822AC089810E949C0981E290E0C9
:10155000FC018081882F90E09C012F703070809179
:10156000280190912901820F931F90932901809364
:10157000280189818330A9F0809128019091290167
:1015800082959295907F9827807F98279093290144
:101590008093280189818F5F89838981843098F2C3
:1015A00001C000000F90CF91DF910895DF93CF939A
:1015B000CDB7DEB70E94970A20912601309127010E
:1015C00080912801909129012817390751F08091C5
:1015D000280190912901909327018093260181E0B1
:1015E00001C080E0CF91DF910895DF93CF93CDB715
:1015F000DEB78091280190912901CF91DF91089564
:10160000DF93CF93CDB7DEB7109232011092330142
:10161000109234011092350110922C0110922D017C
:1016200010922E0110922F011092310181E00E9440
:101630006700CF91DF9108950F931F93DF93CF93AE
:10164000CDB7DEB72F970FB6F894DEBF0FBECDBF74
:101650008F8780913801823069F4109232011092A4
:10166000330110923401109235011092380181E05B
:101670000E94670080E40E940209809132019091EB
:101680003301A0913401B0913501803021EE9207F1
:1016900025EFA20725E0B2070CF487C080E091E0B7
:1016A0000E94100980E090E0A8E4B2E489839A8364
:1016B000AB83BC8369817A818B819C8120E030E09F
:1016C0004AE755E40E942911DC01CB018D839E83FA
:1016D000AF83B88711E06D817E818F81988520E08E
:1016E00030E040E85FE30E94311388230CF010E003
:1016F000112329F081E090E09A87898746C011E0A4
:101700006D817E818F81988520E03FEF4FE757E420
:101710000E94D11218160CF010E0112361F16981BA
:101720007A818B819C8120E030E040E251E40E948C
:101730002911DC01CB01BC01CD010E94550FDC0158
:10174000CB019A87898712C080E991E09C878B87BB
:101750008B859C858C01C8010197F1F78C011C8752
:101760000B8789859A8501979A87898789859A85C4
:10177000009751F717C06D817E818F8198850E94F7
:10178000550FDC01CB019A87898789859A859E87C9
:101790008D878D859E858C01C8010197F1F78C019D
:1017A0001E870D870E94000B2FC0809132019091FF
:1017B0003301A0913401B09135012AE030E040E0DE
:1017C00050E0BC01CD010E9443159B01AC018F8507
:1017D000882F90E0A0E0B0E0820F931FA41FB51FF8
:1017E0008093320190933301A0933401B09335017B
:1017F0008091320190913301A0913401B091350173
:10180000BC01CD010E946B092F960FB6F894DEBF84
:101810000FBECDBFCF91DF911F910F910895DF9340
:10182000CF930F92CDB7DEB7898320E53CE080915E
:101830003101882F90E04981442F50E0BA01F9012D
:1018400009958981809331018981882F90E08230C8
:10185000910599F08330910524F48130910541F090
:101860001BC08330910571F08430910581F014C064
:101870008DE091E00E9410090FC081E191E00E948B
:1018800010090AC085E191E00E94100905C089E1B4
:1018900091E00E94100900000F90CF91DF91089510
:1018A000EF92FF920F931F93DF93CF9300D000D05E
:1018B00000D0CDB7DEB78D836E8319821A821B826A
:1018C0001C828D81882F90E08230910559F1833000
:1018D00091053CF4009709F476C08130910549F0F8
:1018E00083C083309105D9F18430910509F452C049
:1018F0007BC020912C0130912D0140912E015091FF
:101900002F018091320190913301A0913401B09167
:101910003501820F931FA41FB51F89839A83AB8360
:10192000BC8362C020912C0130912D0140912E0189
:1019300050912F018091320190913301A091340197
:10194000B091350179018A01E81AF90A0A0B1B0BDB
:10195000D801C70189839A83AB83BC8345C080913A
:101960002C0190912D01A0912E01B0912F01209179
:101970003201309133014091340150913501BC0165
:10198000CD010E944315DC01CB0189839A83AB838F
:10199000BC832AC080912C0190912D01A0912E0131
:1019A000B0912F01209132013091330140913401E7
:1019B00050913501BC01CD010E946E1529833A83F7
:1019C0004B835C8311C08E81882369F08091320142
:1019D00090913301A0913401B091350189839A83AC
:1019E000AB83BC8301C0000010923201109233011E
:1019F000109234011092350110922C0110922D0199
:101A000010922E0110922F0181E00E9467008E81BA
:101A1000882309F58D818823F1F0809138018F5F4B
:101A20008093380189819A81AB81BC818093320196
:101A300090933301A0933401B0933501809132012A
:101A400090913301A0913401B0913501BC01CD01D9
:101A50000E946B091BC08E818823C1F089819A8105
:101A6000AB81BC8180932C0190932D01A0932E011A
:101A7000B0932F0180912C0190912D01A0912E0106
:101A8000B0912F01BC01CD010E946B0926960FB6C3
:101A9000F894DEBF0FBECDBFCF91DF911F910F91A4
:101AA000FF90EF900895DF93CF9300D0CDB7DEB7CE
:101AB0009A83898389819A818038910509F46DC060
:101AC0008138910504F58830910509F476C0893094
:101AD00091056CF48230910509F467C0843091055A
:101AE00009F467C08130910509F45BC06AC0803297
:101AF000910509F442C08034910599F18031910536
:101B000009F447C05EC028E080309207F1F028E079
:101B1000813092076CF422E08030920751F124E08A
:101B200080309207D1F021E08030920771F149C0F6
:101B300020E280309207C9F020E48030920749F01B
:101B400020E180309207E9F03CC080E00E941C0B4D
:101B500038C081E00E941C0B34C082E00E941C0B44
:101B600030C083E00E941C0B2CC084E00E941C0B40
:101B700028C085E00E941C0B24C086E00E941C0B3C
:101B800020C087E00E941C0B1CC088E00E941C0B38
:101B900018C089E00E941C0B14C080E00E940F0C4A
:101BA00010C081E00E940F0C0CC082E00E940F0C5C
:101BB00008C083E00E940F0C04C084E00E940F0C58
:101BC00000000F900F90CF91DF910895DF93CF9396
:101BD0000F92CDB7DEB780E00E94020980913001FC
:101BE000898389819AE0692F0E946215805D0E9435
:101BF000BF0289819AE0692F0E946215892F805D5A
:101C00000E94BF028AE30E94BF028091360189834D
:101C100089819AE0692F0E946215805D0E94BF024F
:101C200089819AE0692F0E946215892F805D0E9448
:101C3000BF028AE30E94BF028091370189838981B4
:101C40009AE0692F0E946215805D0E94BF0289811F
:101C50009AE0692F0E946215892F805D0E94BF0261
:101C60000F90CF91DF910895DF93CF9300D0CDB740
:101C7000DEB79A83898389819A818130910561F4E5
:101C8000809136018F5F80933601809136018C33CD
:101C9000A1F41092360111C089819A818031910599
:101CA00061F480913601882319F48CE38093360126
:101CB0008091360181508093360189819A8121E09B
:101CC0008030920761F4809130018F5F8093300102
:101CD000809130018831A9F41092300112C08981BD
:101CE0009A8120E18030920761F48091300188234D
:101CF00019F488E180933001809130018150809304
:101D0000300189819A8120E28030920711F410928B
:101D1000370189819A8120E48030920751F4109232
:101D2000370180913701809336018091360180938D
:101D300030010F900F90CF91DF910895DF93CF93F3
:101D40000F92CDB7DEB789838981882311F40E9471
:101D5000E60D80912A018D3730F180912A018D574F
:101D600080932A01809137018F5F809337018091A2
:101D700037018C33C1F4809136018F5F8093360137
:101D800010923701809136018C3369F480913001D3
:101D90008F5F80933001109236018091300188313D
:101DA00011F4109230010F90CF91DF910895DF93DD
:101DB000CF93CDB7DEB78AE390E02FEFFC0120830D
:101DC00084E390E02FEFFC01208381E390E02FEF8C
:101DD000FC01208382E290E0FC01108283E590E028
:101DE00027E0FC01208382E590E022E8FC012083CB
:101DF00087E590E021E0FC0120838FE590E020E87A
:101E0000FC0120830E94C60580E40E9402090E9412
:101E1000D60A8130D9F40E94F50AF0E880309F0795
:101E200041F490912B0181E0892780932B010E943E
:101E3000000B80912B01813029F40E94F50A0E9449
:101E4000530D04C00E94F50A0E94340E80912B01AC
:101E50000E949E0EDCCF1F920F920FB60F92009041
:101E60005B000F9211242F938F939F93EF93FF9317
:101E7000DF93CF93CDB7DEB780912A01805F809347
:101E80002A0182E590E023E8FC012083CF91DF91D5
:101E9000FF91EF919F918F912F910F9000925B0096
:101EA0000F900FBE0F901F901895EF92FF920F9317
:101EB0001F937B018C0120E030E040E05FE40E9452
:101EC000011387FD11C0C801B70120E030E040E0F8
:101ED0005FE40E94F8100E9461139B01AC01205046
:101EE00030404040504806C0C801B7010E9461130D
:101EF0009B01AC01B901CA011F910F91FF90EF90B6
:101F00000895A0E0B0E0E7E8FFE00C94AF15FC0115
:101F1000EA018081823008F438C1DB019C91923063
:101F200008F430C1843059F4943009F02EC1918105
:101F300011968C911197981709F021C126C1943000
:101F400009F420C19230B1F4823009F01EC1CA01F7
:101F5000AF0128E0DA010D90AD01DC010D92CD0159
:101F60002150C1F7DB0111968C9111979181892342
:101F700089830AC1823009F405C1C280D380DB01A4
:101F800012966D907C9013972481358146815781FC
:101F90001496ED90FD900D911C911797C60186192E
:101FA00097095C0197FF04C0AA24BB24A81AB90AA8
:101FB000B0E2AB16B1040CF061C0181619066CF54E
:101FC000370148010A2C04C096948794779467944B
:101FD0000A94D2F781E090E0A0E0B0E00A2C04C0BF
:101FE000880F991FAA1FBB1F0A94D2F70197A10956
:101FF000B1098E219F21A023B123EE24FF24870164
:10200000E3940097A105B10519F4EE24FF2487019C
:10201000E628F728082919293CC00097D1F1CA0CF5
:10202000DB1C39014A010A2C04C0969487947794EA
:1020300067940A94D2F781E090E0A0E0B0E00A2C27
:1020400004C0880F991FAA1FBB1F0A94D2F70197DB
:10205000A109B10982239323A423B52321E030E011
:1020600040E050E00097A105B10519F420E030E010
:10207000A90126293729482959290BC06C147D0448
:1020800024F4EE24FF24870104C0630120E030E043
:10209000A9018181FB019181891709F445C0882339
:1020A00049F0D801C701821B930BA40BB50B9C010F
:1020B000AD0104C02E193F09400B510B57FD04C060
:1020C0001982DB82CA820BC081E08983DB82CA82EB
:1020D00050954095309521953F4F4F4F5F4F2C8342
:1020E0003D834E835F830DC0880F991FAA1FBB1FBE
:1020F0008C839D83AE83BF838A819B8101979B8361
:102100008A838C819D81AE81BF819C01AD0121506C
:102110003040404050402F3FEFEF3E07EFEF4E077B
:10212000EFE35E0708F30BC08983DB82CA822E0DC2
:102130003F1D401F511F2C833D834E835F8383E0EF
:1021400088832C813D814E815F8157FF1DC0DA015C
:10215000C90181709070A070B07056954795379501
:102160002795822B932BA42BB52B8C839D83AE8339
:10217000BF838A819B8101969B838A8305C0EDE1A1
:10218000F1E003C0FB0101C0FE01CF01CDB7DEB716
:10219000EEE00C94CB15A0E2B0E0E1EDF0E10C94A0
:1021A000B71569837A838B839C832D833E834F830A
:1021B000588789E0E82EF12CEC0EFD1ECE01019629
:1021C000B7010E9481148E010F5E1F4FCE0105964C
:1021D000B8010E948114C701B801AE01475E5F4F8C
:1021E0000E94810F0E94B313A096E6E00C94D315D1
:1021F000A0E2B0E0EEEFF0E10C94B71569837A83CA
:102200008B839C832D833E834F8358878E01075F8A
:102210001F4FCE010196B8010E94811491E1E92E71
:10222000F12CEC0EFD1ECE010596B7010E94811423
:102230008A8991E089278A8BC801B701AE01475E80
:102240005F4F0E94810F0E94B313A096E6E00C94AA
:10225000D315A0E2B0E0EFE2F1E10C94AB15698395
:102260007A838B839C832D833E834F835887CE0153
:102270000196BE01675F7F4F0E948114CE010596D3
:10228000BE016F5E7F4F0E9481149985923078F075
:1022900089898230C0F0943019F4823041F4CBC087
:1022A000843019F4923079F4C6C0923051F481E050
:1022B0002A859A89291709F480E08A87CE01099630
:1022C000BCC0823051F481E02A859A89291709F42B
:1022D00080E08A8BCE014196B0C06D847E848F846D
:1022E0009888ED88FE880F89188DE0E2F0E080E0A4
:1022F00090E0DC01AA24BB24650120E030E0A901C4
:10230000B3016170707061157105D1F02E0D3F1D24
:10231000401F511F15012601280E391E4A1E5B1E43
:1023200081E090E0A0E0B0E02E153F0540075107A6
:1023300018F080E090E0DC01820D931DA41DB51D16
:10234000AA0CBB1CCC1CDD1C17FF09C061E0262EAB
:10235000312C412C512CA228B328C428D5283197E0
:1023600049F0EE0CFF1C001F111F96948794779480
:102370006794C6CF6B897C89EB85FC856E0F7F1FC8
:102380006E5F7F4F7C8F6B8F61E0EA857A89E717FC
:1023900009F460E06A8F6B8D7C8D10C0FC01E170E8
:1023A000F070309729F056954795379527955068E6
:1023B000B695A795979587956F5F7F4FB7FDEECF41
:1023C0000CC0880F991FAA1FBB1F57FD8160220FE9
:1023D000331F441F551F615070408030E0E09E075E
:1023E000E0E0AE07E0E4BE0760F36B8F7C8F6FE741
:1023F000E62EF12C012D112DE822F9220A231B23B0
:1024000060E4E616F1040105110561F487FD0AC0D8
:10241000211531054105510529F0805C9F4FAF4FD3
:10242000BF4F80788D8F9E8FAF8FB8A383E0898F49
:10243000CE01499602C08DE191E00E94B313A096AF
:10244000E2E10C94C715A8E1B0E0E9E2F2E10C94F6
:10245000B31569837A838B839C832D833E834F835B
:1024600058878E01075F1F4FCE010196B8010E9469
:10247000811481E1E82EF12CEC0EFD1ECE010596B3
:10248000B7010E9481149985923008F483C089892C
:10249000823008F47BC02A853A8923272A87943022
:1024A00011F0923021F4981709F06CC071C084309B
:1024B00039F41D861E861F86188A1C861B866AC0F4
:1024C000823019F484E0898765C08B859C852B89CF
:1024D0003C89821B930B9C878B872D853E854F857E
:1024E0005889ED88FE880F89188D2E153F05400705
:1024F000510738F4220F331F441F551F01979C8743
:102500008B876FE170E0A12CB12CC12CA0E4DA2EF6
:1025100080E090E0DC012E153F054007510740F0B8
:102520008A299B29AC29BD292E193F09400B510B43
:10253000D694C794B794A794220F331F441F551FF6
:102540006150704041F76FE7E62EF12C012D112DFF
:10255000E822F9220A231B2360E4E616F1040105B0
:10256000110561F487FD0AC02115310541055105AA
:1025700029F0805C9F4FAF4FBF4F80788D879E873B
:10258000AF87B88B8E01075F1F4F04C0870102C061
:102590000DE111E0C8010E94B3136896EAE00C94C3
:1025A000CF15A8E1B0E0E7EDF2E10C94B71569832F
:1025B0007A838B839C832D833E834F8358878E0140
:1025C000075F1F4FCE010196B8010E94811481E17F
:1025D000E82EF12CEC0EFD1ECE010596B7010E94EF
:1025E00081148985823040F08989823028F0C801C1
:1025F000B7010E94EA1401C08FEF6896E6E00C94E0
:10260000D315A8E1B0E0E7E0F3E10C94B7156983D6
:102610007A838B839C832D833E834F8358878E01DF
:10262000075F1F4FCE010196B8010E94811481E11E
:10263000E82EF12CEC0EFD1ECE010596B7010E948E
:1026400081148985823040F08989823028F0C80160
:10265000B7010E94EA1401C08FEF6896E6E00C947F
:10266000D315A8E1B0E0E7E3F3E10C94B715698373
:102670007A838B839C832D833E834F8358878E017F
:10268000075F1F4FCE010196B8010E94811481E1BE
:10269000E82EF12CEC0EFD1ECE010596B7010E942E
:1026A00081148985823040F08989823028F0C80100
:1026B000B7010E94EA1401C081E06896E6E00C943C
:1026C000D315ACE0B0E0E7E6F3E10C94BB15698309
:1026D0007A838B839C83CE010196BE016B5F7F4F13
:1026E0000E9481148D81823081F1823070F18430BA
:1026F00021F48E81882369F10AC02F81388537FD46
:1027000024C06E812F3131053CF0662311F120E0A9
:1027100030E040E050E821C08EE190E0821B930B56
:1027200029853A854B855C8504C056954795379534
:1027300027958A95D2F7662381F05095409530957C
:1027400021953F4F4F4F5F4F08C020E030E0A90177
:1027500004C02FEF3FEF4FEF5FE7B901CA012C969E
:10276000E2E00C94D715EF92FF920F931F93CF9353
:10277000DF93FC012481358146815781618180810D
:10278000823020F44061EFEFF0E0A3C0843009F420
:102790009BC0823009F492C02115310541055105D5
:1027A00009F48FC00280F381E02D8FEFE238F80743
:1027B0000CF05AC0C2E8DFEFCE1BDF0BCA31D105E7
:1027C0006CF579018A010C2E04C016950795F794D3
:1027D000E7940A94D2F781E090E0A0E0B0E00C2EFC
:1027E00004C0880F991FAA1FBB1F0A94D2F7019734
:1027F000A109B10982239323A423B52321E030E06A
:1028000040E050E00097A105B10519F420E030E068
:10281000A9012E293F29402B512B03C020E030E095
:10282000A901DA01C9018F779070A070B07080346F
:102830009105A105B10539F427FF09C0205C3F4F80
:102840004F4F5F4F04C0215C3F4F4F4F5F4FE1E060
:10285000F0E0203080E0380780E0480780E4580747
:1028600028F5E0E0F0E022C0E038F1056CF5E15831
:10287000FF4FDA01C9018F779070A070B07080347B
:102880009105A105B10539F427FF09C0205C3F4F30
:102890004F4F5F4F04C0215C3F4F4F4F5F4F57FF7B
:1028A00005C05695479537952795319687E05695FB
:1028B0004795379527958A95D1F70BC0E0E0F0E072
:1028C00005C0E0E0F0E005C0EFEFF0E020E030E030
:1028D000A9018E2F879588278795942F9F776795D5
:1028E00066276795E695E22EA92FA82BFE2FF62BDB
:1028F000622F732F8A2F9F2FCDB7DEB7E6E00C949F
:10290000D315DC01FB012C9111963C911197129685
:102910008C911297482F4F7750E0982F991F992745
:10292000991F13966C911397862F880F892B90E02F
:10293000661F6627661F6183009739F521153105EB
:102940004105510511F482E029C082E89FEF93838D
:10295000828367E0220F331F441F551F6A95D1F70A
:1029600083E0808309C0220F331F441F551F8281DB
:102970009381019793838283203080E0380780E041
:10298000480780E4580778F320C08F3F910579F419
:10299000211531054105510519F484E0808308951E
:1029A00044FF03C081E0808310C010820EC08F57A7
:1029B00090409383828383E0808387E0220F331FDC
:1029C000441F551F8A95D1F750642483358346836D
:1029D00057830895FC01DB019081923008F449C0CF
:1029E0008C91823008F445C0943051F46181843078
:1029F000B1F511962C91119730E0261B310941C099
:102A0000843021F0923041F48230B1F111968C91F2
:102A100011978823A1F12DC06181823001F11196B7
:102A20008C9111976817D9F42281338112968D9178
:102A30009C9113978217930794F028173907BCF0DD
:102A4000248135814681578114968D919D910D90F9
:102A5000BC91A02D82179307A407B50718F466232D
:102A600041F00DC0281739074A075B0728F4662391
:102A700031F021E030E005C020E030E002C02FEF6F
:102A80003FEFC9010895629FD001739FF001829FBB
:102A9000E00DF11D649FE00DF11D929FF00D839FED
:102AA000F00D749FF00D659FF00D9927729FB00D8A
:102AB000E11DF91F639FB00DE11DF91FBD01CF019D
:102AC00011240895991B79E004C0991F961708F006
:102AD000961B881F7A95C9F78095089597FB092E54
:102AE00005260ED057FD04D014D00AD0001C38F4AF
:102AF00050954095309521953F4F4F4F5F4F08952A
:102B0000F6F790958095709561957F4F8F4F9F4F09
:102B10000895A1E21A2EAA1BBB1BFD010DC0AA1F1E
:102B2000BB1FEE1FFF1FA217B307E407F50720F036
:102B3000A21BB30BE40BF50B661F771F881F991FB1
:102B40001A9469F760957095809590959B01AC01FA
:102B5000BD01CF0108952F923F924F925F926F92E5
:102B60007F928F929F92AF92BF92CF92DF92EF921D
:102B7000FF920F931F93CF93DF93CDB7DEB7CA1B9E
:102B8000DB0B0FB6F894DEBF0FBECDBF09942A88C9
:102B9000398848885F846E847D848C849B84AA8471
:102BA000B984C884DF80EE80FD800C811B81AA81FE
:102BB000B981CE0FD11D0FB6F894DEBF0FBECDBFC9
:082BC000ED010895F894FFCF28
:102BC8004F564552464C4F572020202000202B209E
:102BD80000202D2000202A2000202F2000000000A7
:062BE800000000000000E7
:00000001FF
