:100000000C9446000C9465000C9465000C946500FB
:100010000C9465000C9465000C9465000C946500CC
:100020000C9465000C9465000C9465000C946500BC
:100030000C9465000C9465000C9465000C946500AC
:100040000C9465000C9465000C9465000C9465009C
:100050000C9465000C9465000C9465000C9465008C
:100060000C9465000C9465000C9465000C9465007C
:100070000C9465000C9465000C9465000C9465006C
:100080000C9465000C9465000C94650011241FBE4F
:10009000CFEFD0E1DEBFCDBF11E0A0E0B1E0EAE9F3
:1000A000F2E000E00BBF02C007900D92A032B10752
:1000B000D9F711E0A0E2B1E001C01D92A432B1076E
:1000C000E1F70E942E010C944B010C94000015BA2C
:1000D0008BBB0000AA9A83E08A95F1F7000015BA5D
:1000E00089EF90E00197F1F700C00000089591E0DA
:1000F00095BB8BBB0000AA9A83E08A95F1F70000BC
:1001000015BA80E18A95F1F700C008951BBA15BAB7
:1001100087EA91E60197F1F700C000008CE30E94A6
:10012000670083EC99E00197F1F700C000008CE3D1
:100130000E94670091E29A95F1F700008CE30E941B
:10014000670081E28A95F1F700008CE30E94670066
:100150008CE00E94670081E00E94670086E00E94B8
:100160006700089580680E9467000895EF92FF92EB
:10017000CF93DF93E82EE7017E01F92EE70102C05D
:100180000E94770089918823D9F7DF91CF91FF9062
:10019000EF9008951F93182F8A3098F0843630F02E
:1001A00064E60E943F01805D0E9477002AE0812F73
:1001B000622F0E943F010E943F01892F805D0E94B3
:1001C0007700812F6AE00E943F01892F805D0E94A5
:1001D000770080E091E00E94B6001F9108951F9380
:1001E000DF93CF930F92CDB7DEB780E00E94B200CD
:1001F000809121011AE0612F0E943F01805D998367
:100200000E9477009981892F805D0E9477008AE3A0
:100210000E94770080912201612F0E943F01805D42
:1002200099830E9477009981892F805D0E947700D1
:100230008AE30E94770080912301612F0E943F0191
:10024000805D99830E9477009981892F805D0E944B
:1002500077000F90CF91DF911F9108958FEF8ABBA8
:1002600084BB0E94860082E091E00E94B60080E498
:100270000E94B20080E191E00E94B600FFCF991B7E
:1002800079E004C0991F961708F0961B881F7A958D
:0A029000C9F780950895F894FFCF98
:10029A0020004C65652053656F6E67204A756E00B5
:1002AA00536F6E67204A616520487975636B000059
:00000001FF
